{
  "contractName": "moneyRequest",
  "abi": [
    {
      "inputs": [
        {
          "internalType": "uint256",
          "name": "_amountRequested",
          "type": "uint256"
        },
        {
          "internalType": "uint256",
          "name": "_paybackAmount",
          "type": "uint256"
        },
        {
          "internalType": "string",
          "name": "_loanType",
          "type": "string"
        }
      ],
      "payable": false,
      "stateMutability": "nonpayable",
      "type": "constructor"
    },
    {
      "constant": true,
      "inputs": [],
      "name": "amountRequested",
      "outputs": [
        {
          "internalType": "uint256",
          "name": "",
          "type": "uint256"
        }
      ],
      "payable": false,
      "stateMutability": "view",
      "type": "function"
    },
    {
      "constant": true,
      "inputs": [],
      "name": "asker",
      "outputs": [
        {
          "internalType": "address payable",
          "name": "",
          "type": "address"
        }
      ],
      "payable": false,
      "stateMutability": "view",
      "type": "function"
    },
    {
      "constant": true,
      "inputs": [],
      "name": "contractFee",
      "outputs": [
        {
          "internalType": "uint256",
          "name": "",
          "type": "uint256"
        }
      ],
      "payable": false,
      "stateMutability": "view",
      "type": "function"
    },
    {
      "constant": true,
      "inputs": [],
      "name": "debtPayedOff",
      "outputs": [
        {
          "internalType": "bool",
          "name": "",
          "type": "bool"
        }
      ],
      "payable": false,
      "stateMutability": "view",
      "type": "function"
    },
    {
      "constant": true,
      "inputs": [],
      "name": "lender",
      "outputs": [
        {
          "internalType": "address payable",
          "name": "",
          "type": "address"
        }
      ],
      "payable": false,
      "stateMutability": "view",
      "type": "function"
    },
    {
      "constant": true,
      "inputs": [],
      "name": "lentMoney",
      "outputs": [
        {
          "internalType": "bool",
          "name": "",
          "type": "bool"
        }
      ],
      "payable": false,
      "stateMutability": "view",
      "type": "function"
    },
    {
      "constant": true,
      "inputs": [],
      "name": "loanType",
      "outputs": [
        {
          "internalType": "string",
          "name": "",
          "type": "string"
        }
      ],
      "payable": false,
      "stateMutability": "view",
      "type": "function"
    },
    {
      "constant": true,
      "inputs": [],
      "name": "paybackAmount",
      "outputs": [
        {
          "internalType": "uint256",
          "name": "",
          "type": "uint256"
        }
      ],
      "payable": false,
      "stateMutability": "view",
      "type": "function"
    },
    {
      "constant": true,
      "inputs": [],
      "name": "withdrawnbyLender",
      "outputs": [
        {
          "internalType": "bool",
          "name": "",
          "type": "bool"
        }
      ],
      "payable": false,
      "stateMutability": "view",
      "type": "function"
    },
    {
      "constant": false,
      "inputs": [
        {
          "internalType": "address payable",
          "name": "_origin",
          "type": "address"
        }
      ],
      "name": "deposit",
      "outputs": [
        {
          "internalType": "bool",
          "name": "originIsLender",
          "type": "bool"
        },
        {
          "internalType": "bool",
          "name": "originIsAsker",
          "type": "bool"
        }
      ],
      "payable": true,
      "stateMutability": "payable",
      "type": "function"
    }
  ],
  "bytecode": "0x608060405234801561001057600080fd5b50604051610a54380380610a548339818101604052606081101561003357600080fd5b8101908080519060200190929190805190602001909291908051604051939291908464010000000082111561006757600080fd5b8382019150602082018581111561007d57600080fd5b825186600182028301116401000000008211171561009a57600080fd5b8083526020830192505050908051906020019080838360005b838110156100ce5780820151818401526020810190506100b3565b50505050905090810190601f1680156100fb5780820380516001836020036101000a031916815260200191505b506040525050508260028190555081600381905550806005908051906020019061012692919061012f565b505050506101d4565b828054600181600116156101000203166002900490600052602060002090601f016020900481019282601f1061017057805160ff191683800117855561019e565b8280016001018555821561019e579182015b8281111561019d578251825591602001919060010190610182565b5b5090506101ab91906101af565b5090565b6101d191905b808211156101cd5760008160009055506001016101b5565b5090565b90565b610871806101e36000396000f3fe6080604052600436106100915760003560e01c8063bed70b5711610059578063bed70b571461020a578063c628d3f814610235578063c7a66eb314610260578063d41977cd146102b7578063f340fa01146102e257610091565b806304419b76146100965780631df92e2414610126578063268c4627146101555780634437c91614610184578063bcead63e146101b3575b600080fd5b3480156100a257600080fd5b506100ab610349565b6040518080602001828103825283818151815260200191508051906020019080838360005b838110156100eb5780820151818401526020810190506100d0565b50505050905090810190601f1680156101185780820380516001836020036101000a031916815260200191505b509250505060405180910390f35b34801561013257600080fd5b5061013b6103e7565b604051808215151515815260200191505060405180910390f35b34801561016157600080fd5b5061016a6103fa565b604051808215151515815260200191505060405180910390f35b34801561019057600080fd5b5061019961040d565b604051808215151515815260200191505060405180910390f35b3480156101bf57600080fd5b506101c8610420565b604051808273ffffffffffffffffffffffffffffffffffffffff1673ffffffffffffffffffffffffffffffffffffffff16815260200191505060405180910390f35b34801561021657600080fd5b5061021f610446565b6040518082815260200191505060405180910390f35b34801561024157600080fd5b5061024a61044c565b6040518082815260200191505060405180910390f35b34801561026c57600080fd5b50610275610452565b604051808273ffffffffffffffffffffffffffffffffffffffff1673ffffffffffffffffffffffffffffffffffffffff16815260200191505060405180910390f35b3480156102c357600080fd5b506102cc610477565b6040518082815260200191505060405180910390f35b610324600480360360208110156102f857600080fd5b81019080803573ffffffffffffffffffffffffffffffffffffffff16906020019092919050505061047d565b6040518083151515158152602001821515151581526020019250505060405180910390f35b60058054600181600116156101000203166002900480601f0160208091040260200160405190810160405280929190818152602001828054600181600116156101000203166002900480156103df5780601f106103b4576101008083540402835291602001916103df565b820191906000526020600020905b8154815290600101906020018083116103c257829003601f168201915b505050505081565b600160179054906101000a900460ff1681565b600160189054906101000a900460ff1681565b600160159054906101000a900460ff1681565b600160009054906101000a900473ffffffffffffffffffffffffffffffffffffffff1681565b60035481565b60025481565b6000809054906101000a900473ffffffffffffffffffffffffffffffffffffffff1681565b60045481565b600080600160179054906101000a900460ff16610636576000809054906101000a900473ffffffffffffffffffffffffffffffffffffffff1673ffffffffffffffffffffffffffffffffffffffff168373ffffffffffffffffffffffffffffffffffffffff161415610557576040517f08c379a000000000000000000000000000000000000000000000000000000000815260040180806020018281038252600e8152602001807f696e76616c6964206c656e64657200000000000000000000000000000000000081525060200191505060405180910390fd5b60025434146105ce576040517f08c379a00000000000000000000000000000000000000000000000000000000081526004018080602001828103825260098152602001807f6d73672e76616c7565000000000000000000000000000000000000000000000081525060200191505060405180910390fd5b60018060176101000a81548160ff02191690831515021790555082600160006101000a81548173ffffffffffffffffffffffffffffffffffffffff021916908373ffffffffffffffffffffffffffffffffffffffff1602179055506001915060009050610837565b600160179054906101000a900460ff16801561065f5750600160189054906101000a900460ff16155b156107c8576000809054906101000a900473ffffffffffffffffffffffffffffffffffffffff1673ffffffffffffffffffffffffffffffffffffffff168373ffffffffffffffffffffffffffffffffffffffff1614610726576040517f08c379a00000000000000000000000000000000000000000000000000000000081526004018080602001828103825260168152602001807f696e76616c6964207061796261636b616464726573730000000000000000000081525060200191505060405180910390fd5b6004546003540134146107a1576040517f08c379a000000000000000000000000000000000000000000000000000000000815260040180806020018281038252600f8152602001807f696e76616c6964207061796261636b000000000000000000000000000000000081525060200191505060405180910390fd5b60018060186101000a81548160ff0219169083151502179055506000915060019050610836565b6040517f08c379a00000000000000000000000000000000000000000000000000000000081526004018080602001828103825260058152602001807f4572726f7200000000000000000000000000000000000000000000000000000081525060200191505060405180910390fd5b5b91509156fea265627a7a723158202818a39547a68114f4fdac6206824bf9331ad688dcb9c932f2f691b131ce242e64736f6c634300050c0032",
  "source": "pragma solidity ^0.5.0;\n\ncontract moneyRequest {\n    address payable public asker;\n    address payable public lender;\n    bool private withdrawnbyAsker;\n    bool public withdrawnbyLender;\n    bool private verifiedAsker;\n    bool public lentMoney;\n    bool public debtPayedOff;\n    uint256 public  amountRequested;\n    uint256 public  paybackAmount;\n    uint256 public  contractFee;\n    string public loanType;\n\n\n    constructor(\n\n        uint256 _amountRequested,\n        uint256 _paybackAmount,\n        string memory _loanType\n    ) public {\n\n        amountRequested = _amountRequested;\n        paybackAmount = _paybackAmount;\n        loanType = _loanType;\n    }\n\n    function deposit(address payable _origin) external payable returns (bool originIsLender, bool originIsAsker) {\n          /*\n           * Case 1:\n           *          Lending Request is being covered by lender\n           *          checks:\n           *              must not be covered twice (!moneyLent)\n           *              must not be covered if the debt has been settled\n           *              must not be covered by the asker\n           *              has to be covered with one transaction\n           * Case 2:\n           *          Asker pays back the debt\n           *          checks:\n           *              cannot pay back the debt if money has yet to be lent\n           *              must not be paid back twice\n           *              has to be paid back by the asker\n           *              must be paid back in one transaction and has to include contractFee\n           */\n          if (!lentMoney) {\n              require(_origin != asker, \"invalid lender\");\n              require(msg.value == amountRequested, \"msg.value\");\n              lentMoney = true;\n              lender = _origin;\n              originIsLender = true;\n              originIsAsker = false;\n          } else if (lentMoney && !debtPayedOff) {\n              require(_origin == asker, \"invalid paybackaddress\");\n              require(msg.value == (paybackAmount + contractFee), \"invalid payback\");\n              debtPayedOff = true;\n              originIsLender = false;\n              originIsAsker = true;\n          } else {\n              revert(\"Error\");\n          }\n      }\n\n\n}\n",
  "sourcePath": "/Users/albertomorales/Development/code/peerBusiness/contracts/ProcessingRequests/MoneyRequest.sol",
  "compiler": {
    "name": "solc",
    "version": "0.5.12+commit.7709ece9.Emscripten.clang"
  },
  "schemaVersion": "3.0.19",
  "updatedAt": "2020-01-20T00:24:41.660Z",
  "networkType": "ethereum",
  "devdoc": {
    "methods": {}
  },
  "userdoc": {
    "methods": {}
  }
}