{
  "contractName": "moneyRequest",
  "abi": [
    {
      "inputs": [
        {
          "internalType": "address payable",
          "name": "_asker",
          "type": "address"
        },
        {
          "internalType": "bool",
          "name": "_verifiedAsker",
          "type": "bool"
        },
        {
          "internalType": "uint256",
          "name": "_amountRequested",
          "type": "uint256"
        },
        {
          "internalType": "uint256",
          "name": "_paybackAmount",
          "type": "uint256"
        },
        {
          "internalType": "uint256",
          "name": "_contractFee",
          "type": "uint256"
        },
        {
          "internalType": "string",
          "name": "_loanType",
          "type": "string"
        }
      ],
      "payable": false,
      "stateMutability": "nonpayable",
      "type": "constructor"
    },
    {
      "constant": true,
      "inputs": [],
      "name": "amountRequested",
      "outputs": [
        {
          "internalType": "uint256",
          "name": "",
          "type": "uint256"
        }
      ],
      "payable": false,
      "stateMutability": "view",
      "type": "function"
    },
    {
      "constant": true,
      "inputs": [],
      "name": "asker",
      "outputs": [
        {
          "internalType": "address payable",
          "name": "",
          "type": "address"
        }
      ],
      "payable": false,
      "stateMutability": "view",
      "type": "function"
    },
    {
      "constant": true,
      "inputs": [],
      "name": "contractFee",
      "outputs": [
        {
          "internalType": "uint256",
          "name": "",
          "type": "uint256"
        }
      ],
      "payable": false,
      "stateMutability": "view",
      "type": "function"
    },
    {
      "constant": true,
      "inputs": [],
      "name": "debtPayedOff",
      "outputs": [
        {
          "internalType": "bool",
          "name": "",
          "type": "bool"
        }
      ],
      "payable": false,
      "stateMutability": "view",
      "type": "function"
    },
    {
      "constant": true,
      "inputs": [],
      "name": "lender",
      "outputs": [
        {
          "internalType": "address payable",
          "name": "",
          "type": "address"
        }
      ],
      "payable": false,
      "stateMutability": "view",
      "type": "function"
    },
    {
      "constant": true,
      "inputs": [],
      "name": "lentMoney",
      "outputs": [
        {
          "internalType": "bool",
          "name": "",
          "type": "bool"
        }
      ],
      "payable": false,
      "stateMutability": "view",
      "type": "function"
    },
    {
      "constant": true,
      "inputs": [],
      "name": "loanType",
      "outputs": [
        {
          "internalType": "string",
          "name": "",
          "type": "string"
        }
      ],
      "payable": false,
      "stateMutability": "view",
      "type": "function"
    },
    {
      "constant": true,
      "inputs": [],
      "name": "paybackAmount",
      "outputs": [
        {
          "internalType": "uint256",
          "name": "",
          "type": "uint256"
        }
      ],
      "payable": false,
      "stateMutability": "view",
      "type": "function"
    },
    {
      "constant": true,
      "inputs": [],
      "name": "withdrawnbyLender",
      "outputs": [
        {
          "internalType": "bool",
          "name": "",
          "type": "bool"
        }
      ],
      "payable": false,
      "stateMutability": "view",
      "type": "function"
    }
  ],
  "bytecode": "0x608060405234801561001057600080fd5b5060405161063d38038061063d833981810160405260c081101561003357600080fd5b8101908080519060200190929190805190602001909291908051906020019092919080519060200190929190805190602001909291908051604051939291908464010000000082111561008557600080fd5b8382019150602082018581111561009b57600080fd5b82518660018202830111640100000000821117156100b857600080fd5b8083526020830192505050908051906020019080838360005b838110156100ec5780820151818401526020810190506100d1565b50505050905090810190601f1680156101195780820380516001836020036101000a031916815260200191505b50604052505050856000806101000a81548173ffffffffffffffffffffffffffffffffffffffff021916908373ffffffffffffffffffffffffffffffffffffffff16021790555084600160166101000a81548160ff02191690831515021790555083600281905550826003819055508160048190555080600590805190602001906101a59291906101b1565b50505050505050610256565b828054600181600116156101000203166002900490600052602060002090601f016020900481019282601f106101f257805160ff1916838001178555610220565b82800160010185558215610220579182015b8281111561021f578251825591602001919060010190610204565b5b50905061022d9190610231565b5090565b61025391905b8082111561024f576000816000905550600101610237565b5090565b90565b6103d8806102656000396000f3fe608060405234801561001057600080fd5b50600436106100935760003560e01c8063bcead63e11610066578063bcead63e14610181578063bed70b57146101cb578063c628d3f8146101e9578063c7a66eb314610207578063d41977cd1461025157610093565b806304419b76146100985780631df92e241461011b578063268c46271461013d5780634437c9161461015f575b600080fd5b6100a061026f565b6040518080602001828103825283818151815260200191508051906020019080838360005b838110156100e05780820151818401526020810190506100c5565b50505050905090810190601f16801561010d5780820380516001836020036101000a031916815260200191505b509250505060405180910390f35b61012361030d565b604051808215151515815260200191505060405180910390f35b610145610320565b604051808215151515815260200191505060405180910390f35b610167610333565b604051808215151515815260200191505060405180910390f35b610189610346565b604051808273ffffffffffffffffffffffffffffffffffffffff1673ffffffffffffffffffffffffffffffffffffffff16815260200191505060405180910390f35b6101d361036c565b6040518082815260200191505060405180910390f35b6101f1610372565b6040518082815260200191505060405180910390f35b61020f610378565b604051808273ffffffffffffffffffffffffffffffffffffffff1673ffffffffffffffffffffffffffffffffffffffff16815260200191505060405180910390f35b61025961039d565b6040518082815260200191505060405180910390f35b60058054600181600116156101000203166002900480601f0160208091040260200160405190810160405280929190818152602001828054600181600116156101000203166002900480156103055780601f106102da57610100808354040283529160200191610305565b820191906000526020600020905b8154815290600101906020018083116102e857829003601f168201915b505050505081565b600160179054906101000a900460ff1681565b600160189054906101000a900460ff1681565b600160159054906101000a900460ff1681565b600160009054906101000a900473ffffffffffffffffffffffffffffffffffffffff1681565b60035481565b60025481565b6000809054906101000a900473ffffffffffffffffffffffffffffffffffffffff1681565b6004548156fea265627a7a723158206cd749291678df526ef299ecac46adb0d5ea799611ee853f843ea9ad2f3ed75c64736f6c634300050c0032",
  "source": "pragma solidity ^0.5.0;\n\ncontract moneyRequest {\n    address payable public asker;\n    address payable public lender;\n    bool private withdwdrawnbyAsker;\n    bool public withdrawnbyLender;\n    bool private verifiedAsker;\n    bool public lentMoney;\n    bool public debtPayedOff;\n    uint256 public  amountRequested;\n    uint256 public  paybackAmount;\n    uint256 public  contractFee;\n    string public loanType;\n\n\n    constructor(\n        address payable _asker,\n        bool _verifiedAsker,\n        uint256 _amountRequested,\n        uint256 _paybackAmount,\n        uint256 _contractFee,\n        string memory _loanType\n    ) public {\n        asker = _asker;\n        verifiedAsker = _verifiedAsker;\n        amountRequested = _amountRequested;\n        paybackAmount = _paybackAmount;\n        contractFee = _contractFee;\n        loanType = _loanType;\n    }\n}\n",
  "sourcePath": "/Users/albertomorales/Development/code/peerBusiness/contracts/ProcessingRequests/MoneyRequest.sol",
  "compiler": {
    "name": "solc",
    "version": "0.5.12+commit.7709ece9.Emscripten.clang"
  },
  "schemaVersion": "3.0.19",
  "updatedAt": "2020-01-18T08:16:29.934Z",
  "devdoc": {
    "methods": {}
  },
  "userdoc": {
    "methods": {}
  }
}