{
  "contractName": "MoneyRequest",
  "abi": [
    {
      "inputs": [
        {
          "internalType": "address payable",
          "name": "asker",
          "type": "address"
        },
        {
          "internalType": "uint256",
          "name": "amountRequested",
          "type": "uint256"
        },
        {
          "internalType": "uint256",
          "name": "paybackAmount",
          "type": "uint256"
        },
        {
          "internalType": "string",
          "name": "loanType",
          "type": "string"
        },
        {
          "internalType": "address payable",
          "name": "requestManager",
          "type": "address"
        }
      ],
      "payable": false,
      "stateMutability": "nonpayable",
      "type": "constructor"
    },
    {
      "constant": true,
      "inputs": [],
      "name": "amountRequested",
      "outputs": [
        {
          "internalType": "uint256",
          "name": "",
          "type": "uint256"
        }
      ],
      "payable": false,
      "stateMutability": "view",
      "type": "function"
    },
    {
      "constant": true,
      "inputs": [],
      "name": "asker",
      "outputs": [
        {
          "internalType": "address payable",
          "name": "",
          "type": "address"
        }
      ],
      "payable": false,
      "stateMutability": "view",
      "type": "function"
    },
    {
      "constant": true,
      "inputs": [],
      "name": "debtPayedOff",
      "outputs": [
        {
          "internalType": "bool",
          "name": "",
          "type": "bool"
        }
      ],
      "payable": false,
      "stateMutability": "view",
      "type": "function"
    },
    {
      "constant": true,
      "inputs": [],
      "name": "lender",
      "outputs": [
        {
          "internalType": "address payable",
          "name": "",
          "type": "address"
        }
      ],
      "payable": false,
      "stateMutability": "view",
      "type": "function"
    },
    {
      "constant": true,
      "inputs": [],
      "name": "lentMoney",
      "outputs": [
        {
          "internalType": "bool",
          "name": "",
          "type": "bool"
        }
      ],
      "payable": false,
      "stateMutability": "view",
      "type": "function"
    },
    {
      "constant": true,
      "inputs": [],
      "name": "loanType",
      "outputs": [
        {
          "internalType": "string",
          "name": "",
          "type": "string"
        }
      ],
      "payable": false,
      "stateMutability": "view",
      "type": "function"
    },
    {
      "constant": true,
      "inputs": [],
      "name": "paybackAmount",
      "outputs": [
        {
          "internalType": "uint256",
          "name": "",
          "type": "uint256"
        }
      ],
      "payable": false,
      "stateMutability": "view",
      "type": "function"
    },
    {
      "constant": true,
      "inputs": [],
      "name": "withdrawnByLender",
      "outputs": [
        {
          "internalType": "bool",
          "name": "",
          "type": "bool"
        }
      ],
      "payable": false,
      "stateMutability": "view",
      "type": "function"
    },
    {
      "constant": false,
      "inputs": [
        {
          "internalType": "address payable",
          "name": "from",
          "type": "address"
        }
      ],
      "name": "deposit",
      "outputs": [
        {
          "internalType": "bool",
          "name": "fromAsker",
          "type": "bool"
        },
        {
          "internalType": "bool",
          "name": "fromLender",
          "type": "bool"
        }
      ],
      "payable": true,
      "stateMutability": "payable",
      "type": "function"
    },
    {
      "constant": false,
      "inputs": [
        {
          "internalType": "address",
          "name": "from",
          "type": "address"
        }
      ],
      "name": "withdraw",
      "outputs": [],
      "payable": false,
      "stateMutability": "nonpayable",
      "type": "function"
    }
  ],
  "bytecode": "0x608060405234801561001057600080fd5b50604051610f69380380610f69833981810160405260a081101561003357600080fd5b810190808051906020019092919080519060200190929190805190602001909291908051604051939291908464010000000082111561007157600080fd5b8382019150602082018581111561008757600080fd5b82518660018202830111640100000000821117156100a457600080fd5b8083526020830192505050908051906020019080838360005b838110156100d85780820151818401526020810190506100bd565b50505050905090810190601f1680156101055780820380516001836020036101000a031916815260200191505b50604052602001805190602001909291905050508494508393508292508191508090505050505050610e2d8061013c6000396000f3fe6080604052600436106100915760003560e01c8063bcead63e11610059578063bcead63e14610204578063bed70b571461025b578063c628d3f814610286578063c7a66eb3146102b1578063f340fa011461030857610091565b806304419b761461009657806318e1eb6b146101265780631df92e2414610155578063268c46271461018457806351cff8d9146101b3575b600080fd5b3480156100a257600080fd5b506100ab61036f565b6040518080602001828103825283818151815260200191508051906020019080838360005b838110156100eb5780820151818401526020810190506100d0565b50505050905090810190601f1680156101185780820380516001836020036101000a031916815260200191505b509250505060405180910390f35b34801561013257600080fd5b5061013b61040d565b604051808215151515815260200191505060405180910390f35b34801561016157600080fd5b5061016a610420565b604051808215151515815260200191505060405180910390f35b34801561019057600080fd5b50610199610433565b604051808215151515815260200191505060405180910390f35b3480156101bf57600080fd5b50610202600480360360208110156101d657600080fd5b81019080803573ffffffffffffffffffffffffffffffffffffffff169060200190929190505050610446565b005b34801561021057600080fd5b506102196109e6565b604051808273ffffffffffffffffffffffffffffffffffffffff1673ffffffffffffffffffffffffffffffffffffffff16815260200191505060405180910390f35b34801561026757600080fd5b50610270610a0c565b6040518082815260200191505060405180910390f35b34801561029257600080fd5b5061029b610a12565b6040518082815260200191505060405180910390f35b3480156102bd57600080fd5b506102c6610a18565b604051808273ffffffffffffffffffffffffffffffffffffffff1673ffffffffffffffffffffffffffffffffffffffff16815260200191505060405180910390f35b61034a6004803603602081101561031e57600080fd5b81019080803573ffffffffffffffffffffffffffffffffffffffff169060200190929190505050610a3d565b6040518083151515158152602001821515151581526020019250505060405180910390f35b60048054600181600116156101000203166002900480601f0160208091040260200160405190810160405280929190818152602001828054600181600116156101000203166002900480156104055780601f106103da57610100808354040283529160200191610405565b820191906000526020600020905b8154815290600101906020018083116103e857829003601f168201915b505050505081565b600560159054906101000a900460ff1681565b600160149054906101000a900460ff1681565b600160159054906101000a900460ff1681565b600160149054906101000a900460ff166104c8576040517f08c379a000000000000000000000000000000000000000000000000000000000815260040180806020018281038252600d8152602001807f696e76616c69642073746174650000000000000000000000000000000000000081525060200191505060405180910390fd5b600073ffffffffffffffffffffffffffffffffffffffff16600160009054906101000a900473ffffffffffffffffffffffffffffffffffffffff1673ffffffffffffffffffffffffffffffffffffffff16141561058d576040517f08c379a000000000000000000000000000000000000000000000000000000000815260040180806020018281038252600e8152602001807f696e76616c6964206c656e64657200000000000000000000000000000000000081525060200191505060405180910390fd5b6000809054906101000a900473ffffffffffffffffffffffffffffffffffffffff1673ffffffffffffffffffffffffffffffffffffffff168173ffffffffffffffffffffffffffffffffffffffff16141561070457600160159054906101000a900460ff1615610665576040517f08c379a000000000000000000000000000000000000000000000000000000000815260040180806020018281038252600c8152602001807f6465627420736574746c6564000000000000000000000000000000000000000081525060200191505060405180910390fd5b6001600560146101000a81548160ff0219169083151502179055506000809054906101000a900473ffffffffffffffffffffffffffffffffffffffff1673ffffffffffffffffffffffffffffffffffffffff166108fc3073ffffffffffffffffffffffffffffffffffffffff16319081150290604051600060405180830381858888f193505050501580156106fe573d6000803e3d6000fd5b506109e3565b600160009054906101000a900473ffffffffffffffffffffffffffffffffffffffff1673ffffffffffffffffffffffffffffffffffffffff168173ffffffffffffffffffffffffffffffffffffffff16141561097457600160159054906101000a900460ff166108d357600560149054906101000a900460ff16156107f1576040517f08c379a00000000000000000000000000000000000000000000000000000000081526004018080602001828103825260108152602001807f57697468647261776e427941736b65720000000000000000000000000000000081525060200191505060405180910390fd5b6000600160146101000a81548160ff021916908315150217905550600160009054906101000a900473ffffffffffffffffffffffffffffffffffffffff1673ffffffffffffffffffffffffffffffffffffffff166108fc3073ffffffffffffffffffffffffffffffffffffffff16319081150290604051600060405180830381858888f1935050505015801561088b573d6000803e3d6000fd5b506000600160006101000a81548173ffffffffffffffffffffffffffffffffffffffff021916908373ffffffffffffffffffffffffffffffffffffffff16021790555061096f565b6001600560156101000a81548160ff021916908315150217905550600160009054906101000a900473ffffffffffffffffffffffffffffffffffffffff1673ffffffffffffffffffffffffffffffffffffffff166108fc3073ffffffffffffffffffffffffffffffffffffffff16319081150290604051600060405180830381858888f1935050505015801561096d573d6000803e3d6000fd5b505b6109e2565b6040517f08c379a00000000000000000000000000000000000000000000000000000000081526004018080602001828103825260058152602001807f4572726f7200000000000000000000000000000000000000000000000000000081525060200191505060405180910390fd5b5b50565b600160009054906101000a900473ffffffffffffffffffffffffffffffffffffffff1681565b60035481565b60025481565b6000809054906101000a900473ffffffffffffffffffffffffffffffffffffffff1681565b600080600160149054906101000a900460ff16610bf6576000809054906101000a900473ffffffffffffffffffffffffffffffffffffffff1673ffffffffffffffffffffffffffffffffffffffff168373ffffffffffffffffffffffffffffffffffffffff161415610b17576040517f08c379a000000000000000000000000000000000000000000000000000000000815260040180806020018281038252600e8152602001807f696e76616c6964206c656e64657200000000000000000000000000000000000081525060200191505060405180910390fd5b6002543414610b8e576040517f08c379a00000000000000000000000000000000000000000000000000000000081526004018080602001828103825260098152602001807f6d73672e76616c7565000000000000000000000000000000000000000000000081525060200191505060405180910390fd5b60018060146101000a81548160ff02191690831515021790555082600160006101000a81548173ffffffffffffffffffffffffffffffffffffffff021916908373ffffffffffffffffffffffffffffffffffffffff1602179055506001905060009150610df3565b600160149054906101000a900460ff168015610c1f5750600160159054906101000a900460ff16155b15610d84576000809054906101000a900473ffffffffffffffffffffffffffffffffffffffff1673ffffffffffffffffffffffffffffffffffffffff168373ffffffffffffffffffffffffffffffffffffffff1614610ce6576040517f08c379a00000000000000000000000000000000000000000000000000000000081526004018080602001828103825260168152602001807f696e76616c6964207061796261636b616464726573730000000000000000000081525060200191505060405180910390fd5b6003543414610d5d576040517f08c379a000000000000000000000000000000000000000000000000000000000815260040180806020018281038252600f8152602001807f696e76616c6964207061796261636b000000000000000000000000000000000081525060200191505060405180910390fd5b60018060156101000a81548160ff0219169083151502179055506000905060019150610df2565b6040517f08c379a00000000000000000000000000000000000000000000000000000000081526004018080602001828103825260058152602001807f4572726f7200000000000000000000000000000000000000000000000000000081525060200191505060405180910390fd5b5b91509156fea265627a7a72315820fb254de805d6603d0d33944900dd65880e8257d1dab81ee90919b3e105c9a64e64736f6c634300050c0032",
  "source": "pragma solidity ^0.5.0;\n\ncontract MoneyRequest {\n    address payable public asker;\n    address payable public lender;\n    bool public lentMoney;\n    bool public debtPayedOff;\n    uint256 public  amountRequested;\n    uint256 public  paybackAmount;\n    string public loanType;\n    address payable private requestManager;\n    bool private withdrawnByAsker;\n    bool public withdrawnByLender;\n\n    constructor(\n        address payable asker,\n        uint256 amountRequested,\n        uint256 paybackAmount,\n        string memory loanType,\n        address payable requestManager\n\n    ) public {\n        asker = asker;\n        amountRequested = amountRequested;\n        paybackAmount = paybackAmount;\n        loanType = loanType;\n        requestManager = requestManager;\n    }\n\n\n\n   function deposit(address payable from) external payable returns(bool fromAsker, bool fromLender) {\n      if (!lentMoney) {\n         require(from != asker, \"invalid lender\");\n         require(msg.value == amountRequested, \"msg.value\");\n         lentMoney = true;\n         lender = from;\n         fromLender = true;\n         fromAsker = false;\n     } else if (lentMoney && !debtPayedOff) {\n         require(from == asker, \"invalid paybackaddress\");\n         require(msg.value == paybackAmount, \"invalid payback\");\n         debtPayedOff = true;\n         fromLender = false;\n         fromAsker= true;\n     } else {\n         revert(\"Error\");\n     }\n    }\n\n\n    function withdraw(address from ) external {\n        require(lentMoney, \"invalid state\");\n        require(lender != address(0), \"invalid lender\");\n        if (from == asker) {\n            require(!debtPayedOff, \"debt settled\");\n            withdrawnByAsker = true;\n            asker.transfer(address(this).balance);\n        } else if (from == lender) {\n            if (!debtPayedOff) {\n                require(!withdrawnByAsker, \"WithdrawnByAsker\");\n                lentMoney = false;\n                lender.transfer(address(this).balance);\n                lender = address(0);\n            } else {\n                withdrawnByLender = true;\n                lender.transfer(address(this).balance);\n            }\n        } else {\n            revert(\"Error\");\n        }\n    }\n}\n",
  "sourcePath": "/Users/albertomorales/Development/code/peerBusiness/contracts/ProcessingRequests/MoneyRequest.sol",
  "compiler": {
    "name": "solc",
    "version": "0.5.12+commit.7709ece9.Emscripten.clang"
  },
  "schemaVersion": "3.0.19",
  "updatedAt": "2020-02-14T22:23:00.704Z",
  "devdoc": {
    "methods": {}
  },
  "userdoc": {
    "methods": {}
  }
}