{
  "contractName": "RequestManager",
  "abi": [
    {
      "inputs": [
        {
          "internalType": "address",
          "name": "factory",
          "type": "address"
        }
      ],
      "payable": false,
      "stateMutability": "nonpayable",
      "type": "constructor"
    },
    {
      "constant": false,
      "inputs": [
        {
          "internalType": "uint256",
          "name": "amount",
          "type": "uint256"
        },
        {
          "internalType": "uint256",
          "name": "paybackAmount",
          "type": "uint256"
        },
        {
          "internalType": "string",
          "name": "loanType",
          "type": "string"
        }
      ],
      "name": "query",
      "outputs": [],
      "payable": false,
      "stateMutability": "nonpayable",
      "type": "function"
    },
    {
      "constant": false,
      "inputs": [
        {
          "internalType": "address payable",
          "name": "moneyRequest",
          "type": "address"
        }
      ],
      "name": "deposit",
      "outputs": [],
      "payable": true,
      "stateMutability": "payable",
      "type": "function"
    }
  ],
  "bytecode": "0x608060405234801561001057600080fd5b506040516104a73803806104a78339818101604052602081101561003357600080fd5b8101908080519060200190929190505050806000806101000a81548173ffffffffffffffffffffffffffffffffffffffff021916908373ffffffffffffffffffffffffffffffffffffffff16021790555050610413806100946000396000f3fe6080604052600436106100285760003560e01c80624077881461002d578063f340fa0114610109575b600080fd5b34801561003957600080fd5b506101076004803603606081101561005057600080fd5b8101908080359060200190929190803590602001909291908035906020019064010000000081111561008157600080fd5b82018360208201111561009357600080fd5b803590602001918460018302840111640100000000831117156100b557600080fd5b91908080601f016020809104026020016040519081016040528093929190818152602001838380828437600081840152601f19601f82011690508083019250505050505050919291929050505061014d565b005b61014b6004803603602081101561011f57600080fd5b81019080803573ffffffffffffffffffffffffffffffffffffffff169060200190929190505050610315565b005b60008060009054906101000a900473ffffffffffffffffffffffffffffffffffffffff1673ffffffffffffffffffffffffffffffffffffffff1663f4175885858585336040518563ffffffff1660e01b815260040180858152602001848152602001806020018373ffffffffffffffffffffffffffffffffffffffff1673ffffffffffffffffffffffffffffffffffffffff168152602001828103825284818151815260200191508051906020019080838360005b8381101561021d578082015181840152602081019050610202565b50505050905090810190601f16801561024a5780820380516001836020036101000a031916815260200191505b5095505050505050602060405180830381600087803b15801561026c57600080fd5b505af1158015610280573d6000803e3d6000fd5b505050506040513d602081101561029657600080fd5b8101908080519060200190929190505050905060018190806001815401808255809150509060018203906000526020600020016000909192909190916101000a81548173ffffffffffffffffffffffffffffffffffffffff021916908373ffffffffffffffffffffffffffffffffffffffff1602179055505050505050565b8073ffffffffffffffffffffffffffffffffffffffff1663f340fa0134336040518363ffffffff1660e01b8152600401808273ffffffffffffffffffffffffffffffffffffffff1673ffffffffffffffffffffffffffffffffffffffff16815260200191505060408051808303818588803b15801561039357600080fd5b505af11580156103a7573d6000803e3d6000fd5b50505050506040513d60408110156103be57600080fd5b81019080805190602001909291908051906020019092919050505050505056fea265627a7a7231582012f124c9a2622b91e5517bcf6cb38a90acf6876491f589a98d31ad4000c11d3964736f6c634300050c0032",
  "source": "pragma solidity ^0.5.0;\n\ninterface RequestFactoryInterface {\n    function createMoneyRequestInterface(uint256, uint256, string calldata, address payable) external returns(address);\n}\n\ninterface MoneyRequestInterface {\n    function deposit(address payable) external payable returns(bool, bool);\n\n}\ncontract RequestManager {\n    address private requestFactory;\n    address[] private moneyRequests;\n\n    constructor(address factory) public {\n        requestFactory = factory;\n    }\n\n    function query(uint256 amount, uint256 paybackAmount, string memory loanType) public {\n\n      address request = RequestFactoryInterface(requestFactory).createMoneyRequestInterface(\n        amount, paybackAmount, loanType, msg.sender\n       );\n\n      moneyRequests.push(request);\n    }\n\n    function deposit(address payable moneyRequest) public payable{\n      MoneyRequestInterface(moneyRequest).deposit.value(msg.value)(msg.sender);\n    }\n}\n",
  "sourcePath": "/Users/albertomorales/Development/code/peerBusiness/contracts/ProcessingRequests/RequestManager.sol",
  "compiler": {
    "name": "solc",
    "version": "0.5.12+commit.7709ece9.Emscripten.clang"
  },
  "schemaVersion": "3.0.19",
  "updatedAt": "2020-02-14T22:23:00.712Z",
  "devdoc": {
    "methods": {}
  },
  "userdoc": {
    "methods": {}
  }
}